:040000000C94D50087
:100044000C94DA050C9425060C9470060C94BB06EB
:040064000C942608CA
:1400E4003E13004C13006713002F13002A1300701300701359
:1400F800007013007013007013005813005E1300701300709C
:14010C0013007013004F130070130070130022130043130056
:14012000701300701300251300341300701300391300000275
:14013400030601040500040102050603020001000400030085
:1401480006000500060003000200050004000100040005007A
:14015C00060001000200030000020306010405000401020562
:14017000060300000600050004000300020001000000060057
:1401840005000400030002000100000203060104050004013E
:1401980002050603000000000000000000000001000FCFEF75
:1401AC00D1E2CDBFDEBFC051D0400AEA08830024EEE0F2E0FF
:1401C00012E0E536F10711F00192FBCF0083ECE9F1E0A0E01F
:1401D400B2E011E000E00BBFEA3AF10721F0C89531960D92FA
:1401E800F9CF0E94F800FFCF229744E650E00E94FF070E9476
:1401FC00DD090E945B080E94DA0B00E911E00E94AA0B00E963
:1402100011E00E94AA0B00E911E00E94AA0B00E911E00E94E5
:14022400AA0B00E911E00E94AA0B0E945C1000E911E00E9456
:14023800AA0B22E002E00E946B0100E911E00E94AA0B86E074
:14024C0090E09983888325E004E00E94A70E00E911E00E944B
:14026000AA0B0E94DD0900E911E00E94AA0B21E008E110E042
:140274000E94520F00E911E00E94AA0B0E94DD0900E911E0E0
:140288000E94AA0B8AE090E09983888326E003E00E94D80D9A
:14029C0000E911E00E94AA0B0E94DD0900E911E00E94AA0B64
:1402B00086E090E09983888325E004E00E94A70E00E911E023
:1402C4000E94AA0B222708E110E00E94520F229608950E94B3
:1402D80079130E94BA13259716E00F850F5F0E947E13802F81
:1402EC008F5F898316E0082F0F5F0E947E13802F8F5F8A838C
:14030000282E87E082198B83298087E082198C8387E0A82E8C
:140314000F84A01846E482E3C82E68E284E690E07C0112E072
:14032800002D0E947E13002309F0B5C09E012C5F3F4F8E0189
:14033C000D5F1F4F0E940A0D9E012E5F3F4F8E010F5F1F4FF5
:140350000E940A0DA4C08AE5888322E40F850E94FD0B8AE54F
:14036400888322E409810E94FD0B8AE5888322E40A810E9493
:14037800FD0B08E210E00E94AA0B688322E40B810E94FD0B11
:14038C00688322E40C810E94FD0B688322E40A2D0E94FD0B63
:1403A00087010E94AA0B8AE5888323E40F850E94FD0B8AE53C
:1403B400888321E409810E94FD0B8AE5888321E40A810E9445
:1403C800FD0B8AE58C19888321E40B810E94FD0B8C2D865A26
:1403DC00888321E40C810E94FD0B842F865A888323E40A2DEA
:1403F0000E94FD0B87010E94AA0B8AE5888322E40B810E94C2
:14040400FD0B8AE5888322E40C810E94FD0B8AE5888322E4A5
:140418000A2D0E94FD0B08E210E00E94AA0B688322E40F8539
:14042C000E94FD0B688322E409810E94FD0B688322E40A8171
:140440000E94FD0B87010E94AA0B842F865A888323E40F85E6
:140454000E94FD0B8AE58C19888321E409810E94FD0B8C2DD9
:14046800865A888321E40A810E94FD0B8AE5888321E40B8150
:14047C000E94FD0B8AE5888321E40C810E94FD0B8AE5888392
:1404900023E40A2D0E94FD0B87010E94AA0B29883324822DDA
:1404A4008150898B80E0821508F453CF25960E94AF13249671
:1404B80008950E9479130E94BA13269716E008890F5F0E94A2
:1404CC007E13802F8F5F898316E0082F0F5F0E947E13802F65
:1404E0008F5F8A83282E87E082198B83298087E082198C83ED
:1404F40087E0088880198D834CE38CE3E82E68E280E991E07C
:140508006C015C0112E008890E947E13002309F025C19E01BE
:14051C002C5F3F4F8E010D5F1F4F0E940A0D9E012E5F3F4FD6
:140530008E010F5F1F4F0E940A0D14C18AE5888323E40889AC
:140544000E94FD0B8AE5888323E409810E94FD0B8AE58883CA
:1405580023E40A810E94FD0B8AE5888322E408890E94FD0B98
:14056C008AE5888322E409810E94FD0B8AE5888322E40A81BC
:140580000E94FD0B85010E94AA0B688322E40B810E94FD0BB9
:14059400688322E40C810E94FD0B688322E40D810E94FD0B02
:1405A8002224288223E40B810E94FD0B2224288223E40C818E
:1405BC000E94FD0B2224288223E40D810E94FD0B86010E9429
:1405D000AA0B8AE5888321E408890E94FD0B8AE5888321E429
:1405E40009810E94FD0B8AE5888321E40A810E94FD0B860194
:1405F8000E94AA0B84EB888323E40B810E94FD0B84EB888367
:14060C0023E40C810E94FD0B84EB888323E40D810E94FD0BE3
:140620008AE58E19888321E40B810E94FD0B8E2D865A8883C4
:1406340021E40C810E94FD0B842F865A888321E40D810E94A3
:14064800FD0B86010E94AA0B8AE5888323E40B810E94FD0B01
:14065C008AE5888323E40C810E94FD0B8AE5888323E40D81C3
:140670000E94FD0B8AE5888322E40B810E94FD0B8AE588839C
:1406840022E40C810E94FD0B8AE5888322E40D810E94FD0B6D
:1406980085010E94AA0B688322E408890E94FD0B688322E454
:1406AC0009810E94FD0B688322E40A810E94FD0B22242882F0
:1406C00023E408890E94FD0B2224288223E409810E94FD0BB9
:1406D4002224288223E40A810E94FD0B86010E94AA0B84EB99
:1406E800888323E408890E94FD0B84EB888323E409810E9404
:1406FC00FD0B84EB888323E40A810E94FD0B842F865A88838E
:1407100021E408890E94FD0B8AE58E19888321E409810E9443
:14072400FD0B8E2D865A888321E40A810E94FD0B86010E94B0
:14073800AA0B8AE5888321E40B810E94FD0B8AE5888321E4C4
:14074C000C810E94FD0B8AE5888321E40D810E94FD0B860124
:140760000E94AA0B2A883324822D81508A8B80E0821508F49D
:14077400E3CE26960E94AF13249608950E9479130E94BA13AC
:14078800639782E391E0FE01319607E010E0FA93EA939A93B9
:14079C008A930E94EF1389E391E0FE01389607E010E0FA937A
:1407B000EA939A938A930E94EF13CE010196EF8DFF27E80FCB
:1407C400F91F20802F86CE010896ED8DFF27E80FF91F2080F8
:1407D800288ACE010896E22DFF27E80FF91F2080298ACE0188
:1407EC000196EF85FF27E80FF91F20802A8A42E388E2C82EE0
:1408000068E288EC90E07C015C01A8C08AE5888322E4098962
:140814000E94FD0B8AE5888322E40A890E94FD0B688322E478
:140828000D8D0E94FD0B688322E40F8D0E94FD0B87010E9417
:14083C00AA0B8AE5841B888321E409890E94FD0B842F865A06
:14085000888321E40A890E94FD0B842F865A888321E40D8D0A
:140864000E94FD0B8AE5841B888321E40F8D0E94FD0B8701EA
:140878000E94AA0B8AE5888322E40D8D0E94FD0B8AE58883D7
:14088C0022E40F8D0E94FD0B688322E40F850E94FD0B6883F2
:1408A00022E408890E94FD0B87010E94AA0B8AE5841B88830B
:1408B40021E40D8D0E94FD0B842F865A888321E40F8D0E9406
:1408C800FD0B8AE58C19888321E40F850E94FD0B8C2D865A19
:1408DC00888321E408890E94FD0B85010E94AA0B8AE5888366
:1408F00022E40F850E94FD0B8AE5888322E408890E94FD0BF5
:14090400688322E409890E94FD0B688322E40A890E94FD0B84
:1409180087010E94AA0B8C2D865A888321E40F850E94FD0B05
:14092C008AE58C19888321E408890E94FD0B842F865A8883BA
:1409400021E409890E94FD0B8AE5841B888321E40A890E940F
:14095400FD0B85010E94AA0B49A05AA0C20101979AA389A303
:1409680022243324241435040CF44CCF63960E94AF1324963B
:14097C000895222422B88FEF81B925B881E084B928B88FEF19
:1409900087B92BB880EF8AB92EB82DB821BA20BA24BA83E0BD
:1409A40083BB2092020180E780930101209205018EEF809388
:1409B8000401209208012092070120920B0187EC80930A0162
:1409CC00089522242092810084E98093850081E08093840004
:1409E0008BE6809389008FEF809388008BE680938B008FEF50
:1409F40080938A0020928D0020928C008BE6809387008FEF4C
:140A080080938600209280002092820081E080938100089549
:140A1C00809102018B7F8093020108958091020184608093EA
:140A3000020108958BB18F7D8BB908955D9A089580910B0138
:140A44008B7F80930B01089580910B01846080930B0108951B
:140A580084B38D7F84BB0895A19A089580910B018F7B809359
:140A6C000B01089580910B01806480930B0108958BB18F7EC7
:140A80008BB908955C9A089580910B018F7780930B0108950F
:140A940080910B01806880930B010895809102018F7B80935C
:140AA8000201089580910201806480930201089580910201DB
:140ABC008F7E809302010895809102018061809302010895BE
:140AD000809102018F7D809302010895809102018062809336
:140AE40002010895809105018F778093050108958091050174
:140AF800806880930501089584B38E7F84BB0895A09A089555
:140B0C008BB18F778BB908955F9A08958BB18F7B8BB90895F5
:140B20005E9A0895809105018F7D809305010895809105013C
:140B34008062809305010895809105018F7B8093050108953E
:140B4800809105018064809305010895809105018F7E8093B1
:140B5C0005010895809105018061809305010895809105011D
:140B7000877F80930501089580910501886080930501089500
:140B8400809105018D7F809305010895809105018260809378
:140B980005010895809105018B7F80930501089580910501B8
:140BAC0084608093050108950A921A922A923A924A925A9203
:140BC0006A927A928A929A920A931A932A933A938A939A93B3
:140BD400AA93BA93EA93FA930FB60A9220900002222009F427
:140BE80025DF80910002813009F438DF80910002823009F45B
:140BFC0051DF80910002833009F47CDF80910002843009F4D3
:140C100089DF80910002853009F4A8DF09900FBEF991E991B2
:140C2400B991A99199918991399129911991099199908990EA
:140C38007990699059904990399029901990099018950A92D7
:140C4C001A922A923A924A925A926A927A928A929A920A93AB
:140C60001A932A933A938A939A93AA93BA93EA93FA930FB6A6
:140C74000A9220900002222009F4E0DE80910002813009F460
:140C8800F9DE80910002823009F412DF80910002833009F40B
:140C9C0037DF80910002843009F44ADF80910002853009F47C
:140CB00069DF09900FBEF991E991B991A991999189913991EC
:140CC40029911991099199908990799069905990499039904F
:140CD80029901990099018950A921A922A923A924A925A92C8
:140CEC006A927A928A929A920A931A932A933A938A939A9386
:140D0000AA93BA93EA93FA930FB60A9220900002222009F4F9
:140D1400A1DE80910002813009F4B4DE80910002823009F437
:140D2800D3DE80910002833009F4F2DE80910002843009F4AF
:140D3C000BDF80910002853009F42ADF09900FBEF991E99181
:140D5000B991A99199918991399129911991099199908990BD
:140D64007990699059904990399029901990099018950A92AA
:140D78001A922A923A924A925A926A927A928A929A920A937E
:140D8C001A932A933A938A939A93AA93BA93EA93FA930FB679
:140DA0000A9284E98093850081E0809384008091040290916E
:140DB400050201969093050280930402809100028F5F809336
:140DC800000287E020900002821518F42224209200022090AF
:140DDC000002222019F52CDE33DE3CDE20905202209289003D
:140DF000209051022092880020904F023090500220928B0062
:140E040020904D0230904E0220928A0020904B0230904C0284
:140E180020928D002090490230904A0220928C00809100022F
:140E2C00813019F51FDE28DE2FDE20904802209289002090FE
:140E4000470220928800209045023090460220928B0020902F
:140E540043023090440220928A00209041023090420220925A
:140E68008D0020903F023090400220928C00809100028230F3
:140E7C0019F516DE21DE2CDE20903E022092890020903D023D
:140E90002092880020903B0230903C0220928B002090390201
:140EA40030903A0220928A00209037023090380220928D00E0
:140EB800209035023090360220928C0080910002833019F535
:140ECC001DDE22DE27DE20903402209289002090330220925A
:140EE0008800209031023090320220928B0020902F023090C1
:140EF400300220928A0020902D0230902E0220928D002090BE
:140F08002B0230902C0220928C0080910002843019F50ADEBF
:140F1C0015DE20DE20902A02209289002090290220928800A4
:140F3000209027023090280220928B002090250230902602EE
:140F440020928A00209023023090240220928D002090210290
:140F58003090220220928C0080910002853019F507DE12DEB8
:140F6C001DDE209020022092890020901F02209288002090AE
:140F80001D0230901E0220928B0020901B0230901C022092C4
:140F94008A002090190230901A0220928D0020901702309050
:140FA800180220928C0009900FBEF991E991B991A9919991C5
:140FBC00899139912991199109919990899079906990599012
:140FD00049903990299019900990189522242092C100209258
:140FE400C00086E08093C20087E48093C4002092C50088E9D4
:140FF8008093C1000895F89422242092740020927500B9DCC0
:14100C00E0DCE6DF222425BE2092690020926A0020926800D5
:1410200020926B0020926C0020926D002DBA20926E008FE0EC
:1410340080936F002092700020927100209272002092730098
:14104800789408950A921A922A923A924A925A926A927A924B
:14105C008A929A920A931A932A933A938A939A93AA93BA9390
:14107000EA93FA930FB60A922090C60020920E022092C60051
:141084000E94F21209900FBEF991E991B991A9919991899180
:14109800399129911991099199908990799069905990499076
:1410AC0039902990199009901895289A089585B18E7F85B9DF
:1410C000089580910B018D7F80930B01089580910B0182609B
:1410D40080930B010895222733270027112784EB2090030226
:1410E800821510F4809303022090030280E4829D9001275CF5
:1410FC003044209302028901012F1127009301020895AA9254
:14111000A02EA0920302E1DF20900102209252022090020299
:1411240020925102A9900895AA92A02EA0920302D2DF20903A
:14113800010233243092500220924F02209002023324309265
:14114C004E0220924D02A9900895AA92A02EA0920302BDDF8B
:1411600020900102332430924C0220924B0220900202332457
:1411740030924A0220924902A9900895AA92A02EA092030245
:14118800A8DF20900102209248022090020220924702A99035
:14119C000895AA92A02EA092030299DF20900102332430921D
:1411B0004602209245022090020233243092440220924302E0
:1411C400A9900895AA92A02EA092030284DF20900102332493
:1411D800309242022092410220900202332430924002209247
:1411EC003F02A9900895AA92A02EA09203026FDF2090010296
:1412000020923E022090020220923D02A9900895AA92A02E63
:14121400A092030260DF20900102332430923C0220923B0257
:1412280020900202332430923A0220923902A9900895AA92AA
:14123C00A02EA09203024BDF209001023324309238022092B7
:1412500037022090020233243092360220923502A99008958D
:14126400AA92A02EA092030236DF20900102209234022090D5
:14127800020220923302A9900895AA92A02EA092030227DF5A
:14128C0020900102332430923202209231022090020233245E
:1412A0003092300220922F02A9900895AA92A02EA09203024C
:1412B40012DF20900102332430922E0220922D0220900202A4
:1412C800332430922C0220922B02A9900895AA92A02EA092DA
:1412DC000302FDDE2090010220922A022090020220922902FC
:1412F000A9900895AA92A02EA0920302EEDE209001023324FD
:14130400309228022092270220900202332430922602209267
:141318002502A9900895AA92A02EA0920302D9DE2090010219
:14132C003324309224022092230220900202332430922202A6
:1413400020922102A9900895AA92A02EA0920302C4DE20905B
:141354000102209220022090020220921F02A9900895AA9215
:14136800A02EA0920302B5DE20900102332430921E0220923B
:14137C001D0220900202332430921C0220921B02A9900895AE
:14139000AA92A02EA0920302A0DE20900102332430921A02A2
:1413A400209219022090020233243092180220921702A9907D
:1413B80008950AE5A8DE0AE5B5DE0AE5C8DE0AE5DBDE0AE561
:1413CC00E8DE0AE5FBDE0AE50EDF0AE51BDF0AE52EDF0AE5CF
:1413E00041DF0AE54EDF0AE561DF0AE574DF0AE581DF0AE50E
:1413F40094DF0AE5A7DF0AE5B4DF0AE5C7DF08950AE5BCDEC0
:141408000AE52CDF0AE59CDF089501E4B5DE01E425DF01E489
:14141C0095DF089503E7AEDE03E71EDF03E78EDF08950AE56B
:14143000B6DE0AE5C9DE0AE524DF0AE537DF0AE592DF0AE538
:14144400A5DF08950DE2A9DE0AE5BCDE07E817DF0AE52ADF97
:1414580007E885DF0AE598DF089507E89CDE07E8AFDE0DE256
:14146C000ADF0DE21DDF0DE278DF0DE28BDF08950AE547DE48
:141480000AE5B7DE0AE527DF089501E440DE01E4B0DE01E4E7
:1414940020DF089503E739DE03E7A9DE03E719DF08950AE5C8
:1414A80041DE0AE554DE0AE5AFDE0AE5C2DE0AE51DDF0AE50B
:1414BC0030DF08950DE234DE0AE547DE0DE2A2DE0AE5B5DE6A
:1414D00007E810DF0AE523DF089507E827DE07E83ADE07E8B2
:1414E40095DE07E8A8DE0DE203DF0DE216DF089581E0809346
:1414F80009025FDF04E610E029D187DFA1DF04E610E024D10E
:14150C0090DF04E610E020D1BADFD4DF04E610E01BD1C3DFDD
:1415200004E610E017D16EDFA9DF222420920902089581E01F
:141534008093090240DF04E610E00AD16FDF82DF04E610E028
:1415480005D171DF04E610E001D1A2DFB5DF04E610E0FCD002
:14155C00A4DF04E610E0F8D04FDF8ADF22242092090208951F
:1415700081E08093090221DF04E610E0EBD00DE20EDE0DE289
:1415840021DE07E87CDE07E88FDE04E610E0E0D00DE2F4DD65
:1415980007E864DE04E610E0D9D00AE5FCDD0AE50FDE0AE5F8
:1415AC006ADE0AE57DDE04E610E0CED00DE2B8DD0DE2CBDD06
:1415C00007E8D1DE07E8E4DE04E610E0C3D00DE29EDD07E802
:1415D400B9DE04E610E0BCD00AE5A6DD0AE5B9DD0AE5BFDE83
:1415E8000AE5D2DE04E610E0B1D00DE20DDE0DE220DE07E83F
:1415FC007BDE07E88EDE04E610E0A6D00DE2F3DD07E863DEE8
:1416100004E610E09FD00AE5FBDD0AE50EDE0AE569DE0AE5B6
:141624007CDE04E610E094D0C6DE222420920902089581E075
:1416380080930902BEDE04E610E088D00DE2ABDD0DE2BEDDB1
:14164C0007E819DE07E82CDE04E610E07DD007E891DD0DE238
:1416600001DE04E610E076D00AE599DD0AE5ACDD0AE507DEC6
:141674000AE51ADE04E610E06BD00DE255DD0DE268DD07E822
:141688006EDE07E881DE04E610E060D007E83BDD0DE256DE80
:14169C0004E610E059D00AE543DD0AE556DD0AE55CDE0AE5EE
:1416B0006FDE04E610E04ED00DE2AADD0DE2BDDD07E818DEFD
:1416C40007E82BDE04E610E043D007E890DD0DE200DE04E61A
:1416D80010E03CD00AE598DD0AE5ABDD0AE506DE0AE519DE6E
:1416EC0004E610E031D063DE222420920902089581E08093BA
:14170000090201E013DD0EE626DD01E048DD0EE65BDD01E0EF
:141714007DDD0EE690DD03EBB2DD06E4C5DD03EBE7DD06E461
:14172800FADD03EB1CDE06E42FDE00E911E00ED000E911E065
:14173C000BD03DDE2224209209020895439A089588B1877F4A
:1417500088B9089522243324309205022092040220900402D3
:141764003090050220163106C8F30895AA9287E0801718F49F
:1417780088E080937B000770802F806280937C0080917A0045
:14178C00806480937A0020907A0024FEFCCFA0907900809107
:1417A0007A00806180937A00222420927B000A2DA9900895CD
:1417B4000E94C513442755276627772703E010E09A010E9485
:1417C8009613180183E592E0280E391EFB01E20DF31D8AE57A
:1417DC0080836F5F7F4F6330E0E07E075CF34F5F5F4F463061
:1417F000E0E05E071CF30C94CA130E94DD13422FC02E21978B
:14180400A984A882242F0C2D0ED16C2D77276130E0E07E0701
:14181800C9F06230E0E07E0741F16330E0E07E0709F436C02F
:14182C006430E0E07E0709F444C06530E0E07E0709F45AC0DD
:141840006630E0E07E0709F46FC087C0413421F40A2D0E94E3
:14185400870881C0423421F40A2D0E9496087BC0433409F003
:1418680078C00A2D0E94AB0874C0413421F40A2D0E94C00849
:14187C006EC0423421F40A2D0E94CF0868C0433409F065C032
:141890000A2D0E94E40861C0413421F40A2D0E94F9085BC0DF
:1418A400423421F40A2D0E94080955C0433409F052C00A2DED
:1418B8000E941D094EC0413421F40A2D0E94320948C042342A
:1418CC0041F42A2C332404EB021913090E9441093EC043349F
:1418E00009F03BC02A2C332404EB021913090E94560933C039
:1418F400413421F40A2D0E946B092DC0423441F42A2C3324C4
:1419080004EB021913090E947A0923C0433409F52A2C33247B
:14191C0004EB021913090E948F0919C0413421F40A2D0E941B
:14193000A40913C0423441F42A2C332404EB021913090E9403
:14194400B30909C0433439F42A2C332404EB021913090E94F1
:14195800C80921960C94E613AA92A02E0A2D0E9487080A2DB1
:14196C000E94C0080A2D0E94F9080A2D0E9432090A2D0E9436
:141980006B090A2D0E94A409A9900895AA92A02E0A2D0E94A0
:1419940096080A2D0E94CF080A2D0E9408092A2C332404EB6B
:1419A800021913090E9441092A2C332404EB021913090E9493
:1419BC007A092A2C332404EB021913090E94B309A99008958D
:1419D000AA92A02E0A2D0E94AB080A2D0E94E4080A2D0E94CF
:1419E4001D092A2C332404EB021913090E9456092A2C332448
:1419F80004EB021913090E948F092A2C332404EB02191309A8
:141A0C000E94C809A9900895AA92F801A080F9012080F80195
:141A20002082F901A082A990089583E0809F100183E592E0B1
:141A3400280E391EE22FFF27E154F040E20DF31D088000826C
:141A4800089583E0809F100183E592E0280E391EE22FFF27BC
:141A5C00E154F040E20DF31D0081089520900B0230900C0269
:141A7000222011F4332049F00E94A40B2224332430920C02D1
:141A840020920B0208C00E94A60B81E090E090930C0280935F
:141A98000B0208950E94BA13C22EA02E21976B852C2D0A2D2B
:141AAC00CEDF862F800F803040F02C2D0A2DC7DF262E200E9D
:141AC00080EF821510F4442711C02C2D0A2DBDDFE02E262E3E
:141AD400200E84EB821510F444EB06C02C2D0A2DB2DFE02EA2
:141AE800462F400F48832C2D0A2D83DE21960C94AF130093BE
:141AFC000A02089500910A020895AA92A02EA49780E491E0D9
:141B1000FE0104E210E0FA93EA939A938A930E94EF13EEDF27
:141B24008CE0809F1001CE01280E391EEA2DFF273197EE0FB3
:141B3800FF1FE20DF31D0081A496A99008950E94BC13422F09
:141B4C00E02E2197C9840E2DD8DFA02EC882242F0E2D4DDEAF
:141B6000413459F42C2C332484EB90E0821993098883242F8C
:141B74000A2D41DE04C0C882242F0A2D3CDE21960C94A61345
:141B88000E94BC13C22E402F2197E984042FB7DFA02EE88253
:141B9C002C2D042F7DDFE8822C2D0A2D79DF21960C94A613EB
:141BB0000E9479130E94BA13629784E691E0FE01319607E003
:141BC40010E0FA93EA939A938A930E94EF138BE691E0FE0144
:141BD800389607E010E0FA93EA939A938A930E94EF13CE018D
:141BEC000196EE8DFF27E80FF91F20802F86CE010896EC8D63
:141C0000FF27E80FF91F2080288ACE010896E22DFF27E80FB0
:141C1400F91F2080298ACE010196EF85FF27E80FF91FA08022
:141C280068E282E3E82E8CE3C82E48EC50E0688322E40F8595
:141C3C000E94FD0B688322E408890E94FD0B8A010E94AA0BDC
:141C50008AE58E19888321E40F850E94FD0B8E2D865A888376
:141C640021E408890E94FD0B80EA888323E40F850E94FD0B72
:141C780080EA888323E408890E94FD0B8C2D865A888323E4F6
:141C8C0009890E94FD0B8C2D865A888323E40A2D0E94FD0B7C
:141CA0008A010E94AA0B84EB888322E40F850E94FD0B84EB21
:141CB400888322E408890E94FD0B8A010E94AA0B22242882FE
:141CC80022E40C8D0E94FD0B2224288222E40E8D0E94FD0B84
:141CDC0086E9888321E40C8D0E94FD0B8EE1888321E40E8D18
:141CF0000E94FD0B6627772720C08EE1888322E40C8D0E9470
:141D0400FD0B8EE1888322E40E8D0E94FD0B8A010E94AA0B1C
:141D18002224288222E40C8D0E94FD0B2224288222E40E8DED
:141D2C000E94FD0B8A010E94AA0B6F5F7F4F08A019A06015A5
:141D40007105DCF262960E94AF13249608950E9479130E94C8
:141D5400BA132F97CD8CDE8C82E791E0FE0131960EE010E0A7
:141D6800FA93EA939A938A930E94EF13CE010196E98DFF276D
:141D7C00EE0FFF1FE80FF91FE080CE010196EB8DFF27EE0FC8
:141D9000FF1FE80FF91F60814AE588EC90E05C0172C0842FDC
:141DA400865A888322E4098D0E94FD0B84EB888323E4098DE3
:141DB8000E94FD0B8AE5841B888322E40E2D0E94FD0B8AE5FA
:141DCC00841B888323E40E2D0E94FD0B842F865A888322E4C9
:141DE0000B8D0E94FD0B84EB888323E40B8D0E94FD0B8AE57B
:141DF400841B888322E4062F0E94FD0B8AE5841B888323E42C
:141E0800062F0E94FD0B85010E94AA0B842F865A888322E466
:141E1C000E2D0E94FD0B84EB888323E40E2D0E94FD0B8AE5F8
:141E3000841B888322E4098D0E94FD0B8AE5841B888323E48E
:141E4400098D0E94FD0B842F865A888322E4062F0E94FD0BC7
:141E580084EB888323E4062F0E94FD0B8AE5841B888322E4F7
:141E6C000B8D0E94FD0B8AE5841B888323E40B8D0E94FD0BBE
:141E800085010E94AA0B2601C20101976C01222433242414AD
:141E940035040CF484CF2F960E94AF13249608950E94791300
:141EA8000E94BA13A09780E891E0FE013F960EE010E0FA9368
:141EBC00EA939A938A930E94EF138EE891E0FE01319607E013
:141ED00010E0FA93EA939A938A930E94EF1385E991E0FE0138
:141EE400389607E010E0FA93EA939A938A930E94EF13002429
:141EF80003940D8E82E08E8F83E08F8F84E0C82ECE010F96D6
:141F0C00ED8DFF27EE0FFF1FE80FF91FE080CE010F96EE8DA8
:141F2000FF27EE0FFF1FE80FF91F40816AE584E690E05C0116
:141F3400B0C0862F865A888322E40D8D0E94FD0B84EB8883C5
:141F480023E40D8D0E94FD0B8AE5861B888322E40E2D0E943C
:141F5C00FD0B8AE5861B888323E40E2D0E94FD0B862F865ACD
:141F7000888322E40E8D0E94FD0B84EB888323E40E8D0E9449
:141F8400FD0B8AE5861B888322E4042F0E94FD0B8AE5861B33
:141F9800888323E4042F0E94FD0B8AE5888322E40F8D0E9488
:141FAC00FD0B8AE5888322E40C2D0E94FD0B8AE5888323E435
:141FC0000F8D0E94FD0B8AE5888323E40C2D0E94FD0B8501DD
:141FD4000E94AA0B8CA5813009F02EC0CE010896ED8DFF27CC
:141FE800E80FF91F20802D8ECE010896EE8DFF27E80FF91F5E
:141FFC0020802E8ECE010896EE2DFF27E80FF91FE080CE0189
:142010000896E42FFF27E80FF91F4081CE010896EF8DFF2706
:14202400E80FF91F20802F8ECE010896EC2DFF27E80FF91F81
:14203800C0802DC0CE010196ED8DFF27E80FF91F20802D8EF7
:14204C00CE010196EE8DFF27E80FF91F20802E8ECE010196A8
:14206000EE2DFF27E80FF91FE080CE010196E42FFF27E80F26
:14207400F91F4081CE010196EF8DFF27E80FF91F20802F8E0B
:14208800CE010196EC2DFF27E80FF91FC0804AA45BA4C201A0
:14209C0001979BA78AA722243324241435040CF444CFA096CE
:1420B0000E94AF13249608950E94C513219748EC50E060E982
:1420C40071E000270E947D0D84EB888322E430E001E010E003
:1420D8000E94A30D84EB888323E430E001E010E00E94A30DEE
:1420EC0084EB888322E430E004E010E00E94A30D84EB8883B0
:1421000023E430E004E010E00E94A30D84EB888322E430E0FE
:1421140005E010E00E94A30D84EB888323E430E005E010E02A
:142128000E94A30D8A010E94AA0B8AE5888322E430E004E0FB
:14213C0010E00E94A30D8A010E94AA0B84EB888321E404E008
:142150000E94FD0B84E1888321E403E00E94FD0B8B010E94A1
:14216400AA0B84EB888322E430E004E010E00E94A30D8A0171
:142178000E94AA0B8EE1888321E430E001E010E00E94A30D4A
:14218C008A010E94AA0B2224288222E430E001E010E00E94E4
:1421A000A30D84EB888323E430E001E010E00E94A30D8B013B
:1421B4000E94AA0B86E9888321E430E001E010E00E94A30D0E
:1421C8008A010E94AA0B2224288221E430E004E010E00E94A6
:1421DC00A30D00E911E00E94AA0B82E3888322E430E001E0A7
:1421F00010E00E94A30D8AE5888323E430E001E010E00E9495
:14220400A30D8A010E94AA0B2224288222E430E004E010E05A
:142218000E94A30D84EB888323E430E004E010E00E94A30DA9
:14222C008A010E94AA0B84EB888321E430E004E010E00E94B7
:14224000A30D8A010E94AA0B82E3888322E430E004E010E09E
:142254000E94A30D82E3888323E430E004E010E00E94A30D77
:142268008A010E94AA0B2224288221E430E004E010E00E9405
:14227C00A30D2224288223E430E001E010E00E94A30D8B01E8
:142290000E94AA0B8AE5888323E430E001E010E00E94A30D2F
:1422A4008AE5888322E430E001E010E00E94A30D8A010E9446
:1422B800AA0B2224288221E430E001E010E00E94A30D8B01A9
:1422CC000E94AA0B2224288222E430E004E010E00E94A30D7B
:1422E0002224288223E430E004E010E00E94A30D8A010E9490
:1422F400AA0B84EB888321E430E004E010E00E94A30D8A01E1
:142308000E94AA0B82E3888322E430E004E010E00E94A30DBE
:14231C0082E3888323E430E004E010E00E94A30D8A010E94D3
:14233000AA0B2224288221E430E004E010E00E94A30D8B012D
:142344000E94AA0B2224288222E430E004E010E00E94A30D02
:1423580084EB888323E430E004E010E00E94A30D8A010E948D
:14236C00AA0B2224288222E430E001E010E00E94A30D8A01F4
:142380000E94AA0B8AE5888321E430E004E010E00E94A30D3D
:142394008A010E94AA0B2224288222E430E005E010E00E94D6
:1423A800A30D84EB888323E430E005E010E00E94A30D8A012E
:1423BC000E94AA0B84EB888321E430E005E010E00E94A30D00
:1423D0008A010E94AA0B84EB888321E430E001E010E00E9415
:1423E400A30D84EB888321E430E004E010E00E94A30D8B01F4
:1423F8000E94AA0B82E3888322E430E001E010E00E94A30DD1
:14240C0082E3888323E430E001E010E00E94A30D82E38883A2
:1424200022E430E004E010E00E94A30D82E3888323E430E0E5
:1424340004E010E00E94A30D8A010E94AA0B2224288221E497
:1424480030E001E010E00E94A30D2224288221E430E004E064
:14245C0010E00E94A30D8B010E94AA0B82E3888322E430E0C1
:1424700005E010E00E94A30D82E3888323E430E005E010E0D5
:142484000E94A30D8A010E94AA0B8AE5888322E430E001E09F
:1424980010E00E94A30D8AE5888323E430E001E010E00E94EA
:1424AC00A30D8AE5888322E430E004E010E00E94A30D8AE547
:1424C000888323E430E004E010E00E94A30D8AE5888322E440
:1424D40030E005E010E00E94A30D8AE5888323E430E005E047
:1424E80010E00E94A30D8A010E94AA0B8AE5888321E430E02D
:1424FC0005E010E00E94A30D00E911E00E94AA0B0E94DD09EC
:1425100000E911E00E94AA0B21960C94CA130E94CF13229715
:1425240068E748E28AE090E05C01222433243982288222E0EF
:1425380001E03ADB00E911E00E94AA0B00E911E00E94AA0B37
:14254C003EC0688322E403E00E94FD0B84EB888322E404E09B
:142560000E94FD0B042F11270E94AA0B86E4888321E403E09E
:142574000E94FD0B8AE5888321E404E00E94FD0B042F112731
:142588000E94AA0B84EB888322E403E00E94FD0B688322E4EA
:14259C0004E00E94FD0B042F11270E94AA0B8AE5888321E45C
:1425B00003E00E94FD0B86E4888321E404E00E94FD0B042F4F
:1425C40011270E94AA0B2501C20101975C01222433242414C1
:1425D80035040CF4B8CF22960C94D6134A935A93229740919A
:1425EC000E0255274C33E0E05E0709F470C04E33E0E05E07D8
:1426000009F468C04C33E0E05E070CF469C04136E0E05E0738
:142614000CF464C08AE790E0841795070CF45EC003E010E085
:142628009A010E949613F80181EC9FEFE80FF91F2790379037
:14263C0006900CBEF10119940E94DD094DC021E002E00E9471
:142650006B0148C021E001E00E946B0143C021E004E00E9488
:142664006B013EC021E005E00E946B0139C021E006E00E9482
:142678006B0134C021E003E00E946B012FC081E090E0998320
:14268C00888322E001E00E94C00326C00E94340D23C08AE0D1
:1426A00090E09983888322E001E00E94D80D1AC021E008E161
:1426B40010E00E94520F14C086E090E09983888325E004E065
:1426C8000E94A70E0BC00E945C1008C00E947A0A05C00E9479
:1426DC00990A02C00E94A40B222420920E02229659914991B0
:1426F00008953A932A931A930A930895689401C0E8942A93D2
:14270400FA92EA92FF24EE2420E1000FFF1CEE1CE11610F058
:14271800E11A03952A95B9F70EF40E2DE990F9902991089515
:14272C000A921A928A939A93029FC001129F900D039F900D18
:142740008C0199918991199009900895A990B990C990D99091
:14275400E990F990499159910895A990B990C990D990E99051
:14276800F990499159916991799108957A936A935A934A939B
:14277C00FA92EA92DA92CA92BA92AA9208957A936A935A935D
:142790004A930895499159916991799108957A936A935A935F
:1427A4004A93BA92AA920895A990B9904991599169917991D5
:1427B80008957A936A935A934A93DA92CA92BA92AA920895AF
:1427CC00A990B990C990D99049915991699179910895AA9313
:1427E000BA93EA93FA930A92AF81B885ED81FE810030010760
:1427F40031F0D8950D92319601501040F7CF0990F991E991D9
:08280800B991A99124960895ED
:00000001FF
